:100000000C942A000C943F000C943F000C943F0089
:100010000C943F000C943F000C943F000C943F0064
:100020000C943F000C943F000C943F000C943F0054
:100030000C943F000C943F000C943F000C943F0044
:100040000C943F000C943F000C943F000C943F0034
:100050000C943F0011241FBECFE5D8E0DEBFCDBF1A
:1000600010E0A0E6B0E0ECE8F9E002C005900D92E7
:10007000A637B107D9F70E948F040C94C4040C94DE
:100080000000843008F07EC0683008F07BC0423049
:1000900008F078C0813019F130F08230E1F183301E
:1000A00009F455C00895442319F0413069F00895CA
:1000B0002AB381E090E002C0880F991F6A95E2F7A9
:1000C000809582238ABB08952AB381E090E002C024
:1000D000880F991F6A95E2F7822B8ABB0895442303
:1000E00019F0413069F0089527B381E090E002C033
:1000F000880F991F6A95E2F78095822387BB089540
:1001000027B381E090E002C0880F991F6A95E2F75B
:10011000822B87BB0895442319F0413069F008957C
:1001200024B381E090E002C0880F991F6A95E2F73E
:100130008095822384BB089524B381E090E002C0BF
:10014000880F991F6A95E2F7822B84BB0895442398
:1001500019F0413069F0089521B381E090E002C0C8
:10016000880F991F6A95E2F78095822381BB0895D5
:1001700021B381E090E002C0880F991F6A95E2F7F1
:10018000822B81BB0895843008F07EC0683008F06F
:100190007BC0423008F078C0813019F130F08230F5
:1001A000E1F1833009F455C00895442319F041303A
:1001B00069F008952BB381E090E002C0880F991F89
:1001C0006A95E2F7809582238BBB08952BB381E07B
:1001D00090E002C0880F991F6A95E2F7822B8BBBD3
:1001E0000895442319F0413069F0089528B381E05F
:1001F00090E002C0880F991F6A95E2F780958223EC
:1002000088BB089528B381E090E002C0880F991F51
:100210006A95E2F7822B88BB0895442319F0413098
:1002200069F0089525B381E090E002C0880F991F1E
:100230006A95E2F78095822385BB089525B381E016
:1002400090E002C0880F991F6A95E2F7822B85BB68
:100250000895442319F0413069F0089522B381E0F4
:1002600090E002C0880F991F6A95E2F7809582237B
:1002700082BB089522B381E090E002C0880F991FED
:100280006A95E2F7822B82BB08958430C0F568300E
:10029000B0F54115510599F1813089F028F082308F
:1002A000C9F0833011F1089589B390E002C09595AB
:1002B00087956A95E2F78170FA018083089586B385
:1002C00090E002C0959587956A95E2F78170FA01F2
:1002D0008083089583B390E002C0959587956A95D1
:1002E000E2F78170FA018083089580B390E002C044
:1002F000959587956A95E2F78170FA018083089554
:100300008430A8F5683098F5813089F028F0823083
:10031000C9F0833011F108952BB381E090E002C061
:10032000880F991F6A95E2F7822B8BBB089528B33B
:1003300081E090E002C0880F991F6A95E2F7822B56
:1003400088BB089525B381E090E002C0880F991F13
:100350006A95E2F7822B85BB089522B381E090E095
:1003600002C0880F991F6A95E2F7822B82BB08951D
:1003700040E063E082E00E94410040E064E082E00F
:100380000E94410040E065E082E00E94410040E0C0
:1003900066E082E00E94410063E082E00E9480010A
:1003A00064E082E00E94800165E082E00E948001BA
:1003B00066E082E00E94800141E064E081E00E940A
:1003C000410041E065E081E00E94410041E066E0DB
:1003D00081E00E94410041E067E081E00E9441002D
:1003E00041E064E081E00E94C30041E065E081E01B
:1003F0000E94C30041E066E081E00E94C30041E04A
:1004000067E081E00E94C30008956F927F928F920F
:100410009F92AF92BF92CF92DF92EF92FF920F9393
:100420001F93CF93DF93CDB7DEB7A1970FB6F894A4
:10043000DEBF0FBECDBF009709F481C05C0181E033
:100440008D8F8E8F8F8F88A334E0398F25E02A8F90
:1004500096E09B8F87E08C8F82E08D8B8E8B8F8BCD
:10046000888F83E0898B3A8B2B8B9C8B80E1E0E635
:10047000F0E0DE01119601900D928A95E1F78FEF81
:10048000F501808300E058C0C02ED12CE9E1F0E0F6
:10049000EC0FFD1FEC0DFD1D8080EDE1F0E0EC0F99
:1004A000FD1FEC0DFD1D908040E0682D892D0E9400
:1004B000C30010E037C0E12EF12CE1E1F0E0EC0FD9
:1004C000FD1FEE0DFF1D7080E5E1F0E0EC0FFD1F5C
:1004D000EE0DFF1D6080AE014F5D5F4F672D862DD5
:1004E0000E94450189A181111CC007C0AE014F5D6A
:1004F0005F4F672D862D0E94450189A18823B1F3A6
:10050000EE0CFF1CEE0CFF1C81E090E08C0F9D1F99
:10051000E80EF91EF701EC0DFD1D8081F5018083C9
:1005200003C01F5F143038F241E0682D892D0E940E
:10053000C300143020F00F5F043008F4A5CFA1965B
:100540000FB6F894DEBF0FBECDBFDF91CF911F91E4
:100550000F91FF90EF90DF90CF90BF90AF909F9062
:100560008F907F906F900895CF93C82F80FD06C025
:1005700040E064E080E00E94C30005C041E064E028
:1005800080E00E94C300C1FD06C040E065E080E05D
:100590000E94C30005C041E065E080E00E94C30006
:1005A000C2FD06C040E066E080E00E94C30005C0D6
:1005B00041E066E080E00E94C300C3FD06C040E069
:1005C00067E080E00E94C30005C041E067E080E092
:1005D0000E94C300CF91089541E063E081E00E9452
:1005E000C3008FE99FE00197F1F700C0000040E0F1
:1005F00063E081E00E94C3000895CF93C82F41E0DB
:1006000061E081E00E94C30040E062E081E00E947E
:10061000C3008C2F82958F700E94B4020E94EC025E
:100620008C2F0E94B4020E94EC02CF910895CF93C8
:10063000C82F40E061E081E00E94C30040E062E03A
:1006400081E00E94C3008C2F82958F700E94B402BB
:100650000E94EC028C2F0E94B4020E94EC02CF9107
:10066000089541E061E081E00E94410041E062E0E4
:1006700081E00E94410041E063E081E00E9441008E
:1006800041E064E080E00E94410041E065E080E0FC
:100690000E94410041E066E080E00E94410041E0AC
:1006A00067E080E00E9441002FE785EB91E0215058
:1006B00080409040E1F700C0000040E061E081E050
:1006C0000E94C30040E062E081E00E94C30082E03B
:1006D0000E94B4020E94EC0288E20E94170320EFFD
:1006E0002A95F1F78FE00E94170380EF8A95F1F7C2
:1006F00081E00E9417038FE39FE10197F1F700C0AB
:10070000000086E00E94170308950F931F93CF9374
:10071000009729F40CC00E94FD02CF5F02C08C013B
:10072000C0E0F801EC0FF11D80818111F4CFCF9171
:100730001F910F91089581E00E9417038FE39FE1BD
:100740000197F1F700C000000895CF92DF92EF9279
:10075000FF920F931F938B019C01672B682B692BD2
:1007600049F580E30E94FD0245C0DC01CB01880F02
:10077000991FAA1FBB1F6C017D01CC0CDD1CEE1C58
:10078000FF1CCC0CDD1CEE1CFF1CC80ED91EEA1E83
:10079000FB1EC901B8012AE030E040E050E00E94B1
:1007A000A2046C0D7D1D8E1D9F1D022F132F242F63
:1007B000352F04C061E070E080E090E00115110584
:1007C0002105310591F62AE030E040E050E00E943A
:1007D000A204E22EF32E042F152F80E3860F0E9431
:1007E000FD026E2D7F2D802F912F613071058105C7
:1007F000910549F71F910F91FF90EF90DF90CF90F7
:100800000895EF92FF920F931F93CF93DF931F9260
:10081000CDB7DEB7E12C00E0F12CCE0101960E94AD
:10082000050219811F3FC9F380ED810F8A30F8F46A
:10083000E11010C09F2D990F292F220F220F920F28
:10084000910F0F2EF0EDFF2EF02DF90E812F0E944B
:10085000FD02E3CF802F880F982F990F990F890FF2
:10086000810F00ED080F812F0E94FD02D6CF1B32B1
:1008700031F01D3221F01A3211F01F3229F4812F8C
:100880000E94FD02E12EC9CF1D33C1F58BE2E816AF
:1008900069F08E1520F09AE2E91699F024C08DE2F5
:1008A000E81641F09FE2E91681F01DC010E00F0D3F
:1008B000111D1BC06F2D70E0CB01801B91098C01B5
:1008C00014C0F09E8001112410C0002339F08F2D38
:1008D000602F0E949604082F10E007C080E790E088
:1008E0000E94850314C000E010E08DE30E94FD0229
:1008F000B80180E090E00E94A50309C0133409F01C
:100900008CCF0E949B03E12C00E0F12C86CF0F904E
:10091000DF91CF911F910F91FF90EF9008950E946A
:1009200031030E94B8010E940104FDCF991B79E0B8
:1009300004C0991F961708F0961B881F7A95C9F76F
:1009400080950895A1E21A2EAA1BBB1BFD010DC0C4
:10095000AA1FBB1FEE1FFF1FA217B307E407F5076F
:1009600020F0A21BB30BE40BF50B661F771F881F4B
:10097000991F1A9469F760957095809590959B01E1
:0C098000AC01BD01CF010895F894FFCF39
:10098C003738392F3435362A3132332D43303D2B1D
:06099C004572726F72004B
:00000001FF
